:100000000C9419070C9441070C9441070C94410778
:100010000C9441070C9441070C9441070C94410740
:100020000C9441070C9441070C94B8130C942A14B7
:100030000C9441070C9441070C9441070C94410720
:100040000C9441070C9420180C9441070C94410720
:100050000C9441070C9441070C9441070C946523C0
:100060000C9441070C9441070C9441070C944107F0
:100070000C9441070C9441070C9441070C944107E0
:100080000C9441070C9441070C9441070C944107D0
:100090000C9438220C9441070C9441070C944107AE
:1000A0000C9441070C9441070C9441073609940ABB
:1000B000090A660C1D09040AF0092B098319A619FF
:1000C000AF19E919231A6D1ABB1A99249E24A32487
:1000D000AD24B724012501250125C124CB24D52435
:1000E000DF24EC240125F4242225252514251825B8
:1000F0001E2546254625462529252D25312537252A
:100100003B254625412500000000000000002A2B69
:1001100028000000000000000000000000000000B7
:1001200000000000E4642C9EB4A0A1A2A434A6A701
:10013000A5AE362D3738271E1F2021222324252641
:10014000B333B62EB7B89F8485868788898A8B8C0F
:100150008D8E8F909192939495969798999A9B9C57
:100160009D2F3130A3AD350405060708090A0B0C95
:100170000D0E0F101112131415161718191A1B1C37
:100180001DAFB1B0B5003433323130393837363580
:1001900058575655543D3C3B3A474241403F3E46F6
:1001A000454443FF221C16100A231D17110B611E24
:1001B00018120C621F19130D63201A140E64211BF0
:1001C000150F2A245B06002B255C07012C265D08F1
:1001D000022D275E09032E285F59042F29605A0536
:1001E000716B654E48726C664F49736D67504A7506
:1001F0006E68514B746F69524CFF706A534D080B17
:1002000000020202010009040000010202000005D0
:10021000240010010524010101042402060524061E
:1002200000010705810310004009040100020A00D3
:10023000000007050202400000070583024000009D
:100240000403090412010002EF020140D016B80DA8
:100250000001010203014A61636F42757267650024
:10026000546F756368506164003031323334353611
:100270003738396162636465666768696A6B6C6D9B
:100280006E6F707172737475767778797AC2C3C441
:10029000C5C6C7C8C9CACBCCCD80818283D384856B
:1002A0008687D6D8B2B1D2DAD9B3D1D5D7B0D4C136
:1002B0002000000000000000000000000023264095
:1002C0005C2F24252A2B2D3C3D3E3F3B2E217B7D60
:1002D0005B5D28293A2C22275E5F607C7E1E1F0012
:1002E000000000000000000000202030202020201E
:1002F00031202020203220202020332020202034B4
:1003000020202020352020202036202020203720AB
:10031000202020382020202039202020206120206B
:100320002020622020202063202020206420202004
:1003300020652020202066202020206720202020EB
:10034000682020202069202020206A202020206B87
:10035000202020206C202020206D202020206E20B6
:100360002020206F2020202070202020207120209D
:100370002020722020202073202020207420202084
:10038000207520202020762020202077202020206B
:10039000782020202079202020207A20202046202C
:1003A0003120204620322020462033202046203491
:1003B0002020462035202046203620204620372089
:1003C0002046203820204620392020463130202069
:1003D0004631312020463132204C204354524C20AB
:1003E0005348494C20414C544C20475549504720D4
:1003F0005550522043545252205348495220414CA8
:10040000545220475549504720444F4C45465420AC
:100410002042535020204553432020484F4D202058
:1004200055502020444F574E20205441422020490F
:100430004E532020454E44205249474854205245AF
:1004400054202044454C20434150532053504143B5
:100450004520316D532031306D53203130306D5394
:1004600020203153202020355320203130532020AC
:1004700078322020207833202020783420202078E3
:1004800035202020783130202078323020000000C4
:10049000000000000000000000000000000000005C
:1004A000000000000000000000000000000000004C
:1004B000000000000000000000000000000000003C
:1004C000000000000000000000000000000000002C
:1004D000000000000000000000000000002F2020AD
:1004E00020202020202F202020202020202F202AE4
:1004F000202A202A202F202020202020202F2020CA
:1005000020202020202F202020202020202F002FDE
:10051000204C20435452202F205220435452202F4D
:10052000202020232020202F205350414345202FDE
:10053000202055502020202F52454C454153452F17
:10054000002F204C20534849202F20522053484947
:10055000202F202020262020202F204C45465420CC
:10056000202F20444F574E20202F205249474854D7
:10057000202F002F204C20414C54202F205220416E
:100580004C54202F202020402020202F2020425378
:100590005020202F202054414220202F202052453F
:1005A0005420202F002F204C20475549202F205227
:1005B00020475549202F2020205C2020202F20205C
:1005C00045534320202F2020494E5320202F202008
:1005D00044454C20202F002F205047205550202FDD
:1005E00020504720444F202F2020202F2020202F34
:1005F0002020484F4D20202F2020454E4420202FE2
:10060000202043415053202F002F203C2D202D200F
:10061000202F202044454C20202F2046554E435467
:10062000202F202061626320202F20462F3132337B
:10063000202F204558545241202F002D202D202DB1
:10064000202D202D202D202D202D202D202D202D42
:10065000202D202D202D202D202D202D202D202D32
:10066000202D202D202D202D202D202D002F20204D
:1006700020202020202F202020202020202F20205C
:1006800020202020202F202020202020202F20204C
:1006900020202020202F202020202020202F002F4D
:1006A000202020202020202F202020202020202F2C
:1006B000202020202020202F202A202A202A202FFE
:1006C000202020202020202F202020202020202F0C
:1006D000002F202020612020202F20202062202099
:1006E000202F202020632020202F20202064202065
:1006F000202F202020652020202F20202066202051
:10070000202F002F202020672020202F202020684D
:100710002020202F202020692020202F2020206A28
:100720002020202F2020206B2020202F2020206C14
:100730002020202F002F2020206D2020202F20205F
:10074000206E2020202F2020206F2020202F2020EE
:1007500020702020202F202020712020202F2020DA
:1007600020722020202F002F202020732020202FD7
:10077000202020742020202F202020752020202FB2
:10078000202020762020202F202020772020202F9E
:10079000202020782020202F002F202020792020AA
:1007A000202F2020207A2020202F2020203F2020B2
:1007B000202F2020203B2020202F2020202E2020F2
:1007C000202F202020212020202F002F202020201B
:1007D0002020202F202020202020202F20202020FB
:1007E0002020202F202020202020202F202A202AD7
:1007F000202A202F202020202020202F002F2020E2
:1008000020302020202F202020312020202F2020A9
:1008100020322020202F202020332020202F202095
:1008200020342020202F202020352020202F002F92
:10083000202020362020202F202020372020202F6D
:10084000202020382020202F202020392020202F59
:10085000202020242020202F202020252020202F71
:10086000002F202046203120202F2020462032201B
:10087000202F202046203320202F202046203420E7
:10088000202F202046203520202F202046203620D3
:10089000202F002F202046203720202F20204620E8
:1008A0003820202F202046203920202F202046319C
:1008B0003020202F202046313120202F202046318B
:1008C0003220202F002F202020202020202F202009
:1008D00020202020202F202020202020202F2020FA
:1008E00020202020202F202020202020202F202AE0
:1008F000202A202A202F00212121205761726E6991
:100900006E67202121212020205768656E20696EA6
:10091000207468652070726F6772616D6D696E67B3
:10092000206D6F6465732C2000546F75636850618F
:10093000642074616B657320636F6E74726F6C20DA
:100940006F6620796F7572206B6579626F61726472
:100950002C207468697320636F2000756C642045D7
:10096000444954206F722044454C455445207465D9
:100970007874206F722066696C65732069662079CF
:100980006F75206C656176652074686900732077E7
:10099000696E646F772E20202021212120576172FB
:1009A0006E696E6720212121202020202020202018
:1009B0002020202020202020202020202020004E29
:1009C0006F7720696E206D6163726F2070726F6740
:1009D00072616D206D6F64652C20666F7220636F8D
:1009E0006D6D616E642073657420202020202020AE
:1009F000005573652074686520666F6C6C6F77694D
:100A00006E67206D656E757320746F2061737369F6
:100A1000676E206B657973206F6E20746865206B3C
:100A200065790070616420746F206D6163726F205E
:100A30006B65797320666F7220796F7572207072A2
:100A40006F6772616D202020202020202020202030
:100A500020202020004E6F7720696E204C454420D6
:100A600070726F6772616D206D6F64652C20666FA8
:100A70007220636F6D6D616E642073657420202039
:100A800020202020202000546F756368204C4544AE
:100A90007320746F20746F67676C65207468656D70
:100AA00020616E6420737769706520646F776E20B3
:100AB0007768656E20636F6D00706C6574652020CB
:100AC0002020202020202020202020202020202026
:100AD0002020202020202020202020202020202016
:100AE000202020202020202020200050726F6772BC
:100AF000616D6D696E6720636F6D706C6574652CD8
:100B000020796F752063616E206E6F7720636C6F44
:100B1000736520746865206E6F7465700061642071
:100B2000616E6420736166656C7920726573756DA2
:100B30006520776F726B2E2E2E2020202020202003
:100B40002020202020202020202020202020004E97
:100B50006F206B65792073656C65637465642E2006
:100B60002020202020202020202020202020202085
:100B70002020202020202020202020202020202075
:100B8000004B6579202020202020202020202020BC
:100B90002020202020202020202020202020202055
:100BA0002020202020202020202020202020202045
:100BB0002020002C20202020202020202020202049
:100BC0002020202020202020202020202020202025
:100BD0002020202020202020202020202020202015
:100BE00020202020002073656C65637465643A20C2
:100BF00020202020202020202020202020202020F5
:100C000020202020202020202020202020202020E4
:100C1000202020202020002F2020316D5320202F45
:100C20002031306D5320202F203130306D53202F54
:100C3000202020315320202F202020355320202F0A
:100C4000202031305320202F002F202078322020E8
:100C5000202F202078332020202F2020783420209F
:100C6000202F202078352020202F20207831302080
:100C7000202F202078323020202F002F2020202AE3
:100C80002020202F2020202B2020202F2020202D2E
:100C90002020202F2020203C2020202F2020203DFD
:100CA0002020202F2020203E2020202F002F202019
:100CB000207B2020202F2020207D2020202F20205E
:100CC000205B2020202F2020205D2020202F20208E
:100CD00020282020202F202020292020202F002FF6
:100CE0002020203A2020202F2020202C2020202FC0
:100CF000202020222020202F202020272020202FCD
:100D00002020205E2020202F2020205F2020202F48
:100D1000002F202020602020202F2020207C202039
:100D2000202F2020207E2020202F202020000000A7
:100D300000000000000000000000000000000000B3
:100D400000000005010902A1010901A100850105BA
:100D500009190129031500250195037501810295E3
:100D6000017505810305010930093109381581250F
:100D70007F750895038106C0C005010906A101859C
:100D800002050719E029E71500250175019508817D
:100D900002950175088103950675081500256505FE
:100DA00007190029658100C00000000200090F003A
:100DB00000030401000C000000000000000000001F
:100DC00000000000000000040802011040804010F4
:100DD0002040804080080204018040201002011061
:100DE000801020404020040404040403040502028F
:100DF00002020403020202020606060606060404B4
:100E00000202020404000000002300260029002C36
:100E1000002F0000000000250028002B002E0031CC
:100E20000000000000240027002A002D00300000F0
:100E3000FC1C11241FBECFEFDAE0DEBFCDBF11E0F6
:100E4000A0E0B1E0E4E4FCE402C005900D92AA3811
:100E5000B107D9F723E0AAE8B1E001C01D92A93398
:100E6000B207E1F717E0C9E1D7E004C02197FE011E
:100E70000E94FF25C831D107C9F70E94A71D0C9415
:100E800020260C940000CF93DF93FC0190E034E126
:100E900024E1E0FF07C0243121F0343119F4392F67
:100EA00001C0292FF695E7959F5F9C3091F7ECE103
:100EB000F1E0A6E1B1E080E09191921711F0931377
:100EC00002C0EA0188839D91921711F0931302C02A
:100ED000EB0188838F5F863079F7DF91CF9108959A
:100EE000089580E090E00895EF92FF920F931F9392
:100EF000CF93DF931F92CDB7DEB77B010E940A1715
:100F00008C0182E0898341E050E0BE016F5F7F4F3A
:100F1000F80183810E945A1697FD08C0F801838169
:100F200048E050E0B70180640E945A160F90DF91AC
:100F3000CF911F910F91FF90EF900895DC016838D9
:100F400010F0685825C0E62FF0E067FF12C0E058A7
:100F5000F10981E090E001C0880FEA95EAF78095F9
:100F600014969C911497892314968C93149760E09F
:100F70000FC0EA5FFE4F6491662301F167FF08C06E
:100F800014968C9114978D7F14968C9314976F7789
:100F9000FD01369686E0662321F09081961301C00C
:100FA0001082815031968111F6CFCD01BD016C5F69
:100FB0007F4F0E94740781E090E0089580E090E008
:100FC0000895DC01683810F068582DC0E62FF0E075
:100FD00067FF11C0E058F10981E090E001C0880F7F
:100FE000EA95EAF714969C911497892B14968C93A2
:100FF000149760E018C0EA5FFE4F6491611109C068
:1010000081E090E013969C938E93129780E090E09D
:10101000089567FF08C014968C9114978260149607
:101020008C9314976F7716968C911697861751F1BB
:1010300017968C911797861729F118968C91189707
:10104000861701F119968C9119978617D9F01A967F
:101050008C911A978617B1F01B968C911B97861767
:1010600089F0FD01369680E090E02191211105C0C4
:10107000FD01E80FF91F668305C0019686309105D2
:10108000A1F7BECFCD01BD016C5F7F4F0E947407F9
:1010900081E090E00895CF93C82F682F85E492E017
:1010A0000E94E1076C2F85E492E00E949E07609108
:1010B000DD017091DE016115710529F080E090E09D
:1010C000CF910C94E023CF9108952F923F924F92AD
:1010D0005F926F927F928F929F92AF92BF92CF92C8
:1010E000DF92EF92FF920F931F93CF93DF93CDB7D1
:1010F000DEB72A970FB6F894DEBF0FBECDBF80E0F3
:101100000E94B325892B09F054C40E94E1179C0169
:1011100021713F70232B09F44AC49C012E7E332792
:10112000232B09F444C4AE01495F5F4FBE01685FE1
:101130007F4F0E944307E885EA3009F43AC48F8163
:101140008A3009F436C496E29093D50126E0E29FF6
:10115000F0011124E80FF11DE052FE4F81E0808381
:101160000E94E1178C01EE24E394F12CEF81F0E072
:10117000E45EFE4FC701008002C0880F991F0A94E9
:10118000E2F780239123892B91F10E94E1178C01D2
:10119000EF81F0E0E45EFE4FC701008002C0880FDF
:1011A000991F0A94E2F780239123E885009709F4B8
:1011B00072C5AE2FB0E0AA5EBE4F97010C9002C080
:1011C000220F331F0A94E2F720233123232B09F047
:1011D00062C5980121713F70232B09F45CC52091F1
:1011E000110230911202232B09F055C5E4C3E885A2
:1011F000F0E0EA5EFE4FC701008002C0880F991F31
:101200000A94E2F708231923012B09F0BECF0E94AC
:10121000F217CE0101967C0185E0F70111928A95C3
:10122000E9F7E0911102F0911202E830F10508F0BF
:10123000BCC3EA5AFF4F0C94FF252091DF0138EC24
:1012400023037001112400E010E054EBE50EF11CC3
:10125000F6E07F2EC6C2EF81F0E0EC5FFD4F10821A
:10126000E885F0E0EC5FFD4F16829FC3809100019E
:10127000813011F41092000180E090E026E0289F78
:10128000F001299FF00D1124E052FE4F10821182CF
:10129000128213821482158201968630910579F7A5
:1012A00000E010E038ECD32E43E0C42E59E0B52E18
:1012B00064E0A62E73E1972E88248394E2E07E2ECC
:1012C00048853F812091DF015D2D2503C001112458
:1012D000EEE14E9F800D911D1124F5E03F9F800DA2
:1012E000911D1124800F911F0E949D17482F8F3F41
:1012F00019F40E94001C59C3982F9F77E92FF0E042
:101300009F01285431092C30310570F0E759FD4F09
:10131000649185E492E049870E94E107498547FF8F
:1013200058C00E94001C55C02630310570F59A3413
:10133000D9F050F4983499F0993409F04AC06AE031
:1013400070E080E090E014C09C34D1F0A0F09D34B7
:1013500009F03FC060E177E280E090E009C061E021
:1013600070E080E090E004C064E670E080E090E02F
:101370000E94E0232EC068EE73E080E090E0F8CF9A
:1013800068E873E180E090E0F3CFF701E00FF11F30
:101390008081882329F0815080838823D1F017C071
:1013A000903581F030F49E3459F09F3481F470828E
:1013B0000EC0923559F040F0933549F4908207C041
:1013C000808205C0C08203C0A08201C0B0820FEF3E
:1013D0001FEF0F5F1F4F053011050CF471CF89CF40
:1013E00080E090E026E0289FF001299FF00D112475
:1013F000E052FE4F108211821282138214821582F3
:1014000001968630910579F710921202109211021E
:10141000CCC280E090E026E0289FF001299FF00DEB
:101420001124E052FE4F1082118212821382148224
:10143000158201968630910579F78091DD019091B2
:10144000DE01892B79F08EE591E00E940E1C6091FF
:10145000DD017091DE0180E090E04AE00E94201CF6
:101460000E94001C80EB0E944B0880EB0E944B08FE
:1014700040E061E385E190E00E94341940E060E3E0
:1014800086E190E00E94341940E061E387E190E05A
:101490000E94341940E06BE188E190E00E94341929
:1014A00080EB0E944B0880EB0E944B0840E06BE20F
:1014B00089E190E00E9434198091DF01082E000C30
:1014C000990B01960E94611C80EB0E944B0880EBF7
:1014D0000E944B0840E061E38AE190E00E943419E9
:1014E00040E062E28BE190E00E94341980EB0E94C0
:1014F0004B0880EB0E944B080E94001C81E090E0AA
:1015000090931202809311028AE0809315018093D8
:1015100014011092D4016AE00E94081B0E94721903
:1015200086E08093D40141C280E090E026E0289FCD
:10153000F001299FF00D1124E052FE4F108211821C
:10154000128213821482158201968630910579F7F2
:1015500000911401E8851F81809115010A30B9F4CA
:101560008A30A9F4E09314011093150126E0E29F5C
:10157000F0011124E10FF11DE052FE4F11E0108344
:101580000E94C61B0E9472191093D4010EC236E04D
:10159000039FD0011124A80FB11DA052BE4F91E0AE
:1015A0009C930A30F9F28A30E9F2E1110EC015304D
:1015B00009F0CDC01C928AE080931401809315013C
:1015C0000E94C61B1093D40161C0E13009F052C0E3
:1015D000153009F0BCC0E12CF12C28ECD22E9091F2
:1015E0001401809115010091DF015D2D050380013B
:1015F0001124EEE19E9F000D111D1124F5E08F9F37
:10160000000D111D112457012FEFE21AF20AC80133
:101610008E0D9F1D0E949D178F3F31F46FEFC80103
:101620008A0D9B1D0E947C1734E0E316F104B9F685
:1016300000911401809115012091DF015EE1059F69
:101640008001112438EC2303000D111D112455E0F5
:10165000859F000D111D11240C5F1F4FC8010E94B2
:101660009D178F3F21F06FEFC8010E947C170E94E9
:10167000C61B9BC1E23069F4153009F068C0809147
:10168000D401813009F491C19093D4010E94721960
:101690008CC1E33051F4153009F059C08091D40168
:1016A000823009F482C182E00BC0E43061F415306D
:1016B00009F04DC08091D401833009F476C183E0F4
:1016C0008093D401E3CFE53009F041C0153039F4FF
:1016D0008091D401843009F468C184E0F1CF111104
:1016E0000EC09091D4019430A9F51092DE011092B1
:1016F000DD0160E08CEF93E00E947C1756C114304E
:1017000031F59091D401913029F52091DF019EE1CE
:10171000099F8001112438EC2303000D111D1124B1
:10172000780155E0859FE00CF11C112401E010E0E8
:10173000C8018E0D9F1D0E949D178F3F09F42BC17C
:101740000530110509F427C10F5F1F4FF1CF153088
:1017500008F02BC19091D401292F30E0215031099C
:101760004EE1429F7001439FF00C1124F5E0EF9F82
:10177000E00CF11C1124B701610F711D9B012A5768
:101780003E4F7901F90124912F3F09F40EC1915088
:10179000943008F00AC12091DF01FEE10F9F800123
:1017A000112438EC2303000D111D112455E0859FF1
:1017B000000D111D1124C12CD12C5601A00EB11EFB
:1017C000C5010E949D178F3F21F4F7016491C50167
:1017D0004CCFFFEFCF1ADF0A25E0C216D10469F71C
:1017E00046CF5701A00EB11E812C912C709E600136
:1017F000719ED00C1124C5010E949D17282F30E046
:10180000082C02C0359527950A94E2F72170F6015D
:10181000E80DF91DE052FE4F20833FEF831A930A33
:1018200056E08516910439F70F5F1F4F06301105FA
:10183000C1F680EB0E944B0880EB0E944B0840E011
:1018400061E385E190E00E94341940E060E386E1C5
:1018500090E00E94341940E061E387E190E00E944B
:10186000341940E06BE188E190E00E94341980EB8C
:101870000E944B0880EB0E944B0840E069E28CE13B
:1018800090E00E9434198091DF01082E000C990B22
:1018900001960E94611C80EB0E944B0880EB0E9425
:1018A0004B0840E061E38DE190E00E94341940E094
:1018B00065E08EE190E00E9434190E94001C83E0F4
:1018C00090E090931202809311026FC0FF80FF207E
:1018D00061F10091DF0128EC0203800111240C5416
:1018E0001F4F8885080F111DC8010E949D17282FC2
:1018F00030E00F2C02C0359527950A94E2F741E0BD
:1019000050E060E070E004C0440F551F661F771F71
:10191000FA94D2F720FD03C0682F642B03C04095D2
:10192000682F6423C8010E947C172091DF0138ECE6
:1019300023037001112400E010E054EBE50EF11CCC
:1019400096E0792E5701A00EB11E812C912C709E2D
:101950006001719ED00C1124C5010E949D17282F93
:1019600030E0082C02C0359527950A94E2F72170E3
:10197000F601E80DF91DE052FE4F20838FEF881A23
:10198000980A96E08916910439F70F5F1F4F0630C9
:101990001105C1F60AC0015011090E0D1F1DC80125
:1019A0000E949D178F3F09F0A3C381E0B0C30E943E
:1019B000F21780E0ACC3AE014F5F5F4FBE016A5FBC
:1019C0007F4FC8010E944307F8848E81F81608F4FF
:1019D000CCC026E0EE24E394F7FC14C08F813F2DA9
:1019E0003203F0011124E80FF11DE052FE4FE082B6
:1019F00062E370E080E090E02A870E94E023FA949E
:101A00002A85EACF8091DF018F5F85301CF48093B7
:101A1000DF0102C01092DF016091DF018EEF93E0E1
:101A20000E947C1761E087E00E94832564EB70E0F0
:101A300086E00E94722456E0E52EF12C80E090E0D2
:101A400026E0289FF001299FF00D1124E052FE4F5F
:101A500010821182128213821482158201968630BE
:101A6000910571F72091DF0138EC23034001112427
:101A7000C12CD12C54EB850E911C34016C0C7D1CB7
:101A8000A12CB12C26014E0C5F1CF6E0F49D100138
:101A9000F59D300C112436E04316510488F4C3013F
:101AA0000E949D1790E00A2C02C0959587950A9494
:101AB000E2F78170F101EA0DFB1DE052FE4F8083D9
:101AC0005FEFA51AB50A86E0A816B10421F79FEFCB
:101AD000C91AD90AE6E0CE16D10479F664E670E0B8
:101AE00080E090E00E94E023E114F10451F485E0ED
:101AF00090E09093120280931102EE24E394F12C73
:101B000024C08FEF8E0D843048F46FE770E086E0DC
:101B10000E94722460E087E00E94832551E0E51A6C
:101B2000F1088CCFE885F0E0EA5EFE4FC701008047
:101B300002C0880F991F0A94E2F708231923012B8A
:101B400009F465CB0E94E1178C01EF81F0E0E45EBF
:101B5000FE4FC701008002C0880F991F0A94E2F768
:101B600080239123892BF1F2EDCF86E0D82EEE244D
:101B7000E39435E03F1588F08F81DF9CF00111245C
:101B8000E80FF11DE052FE4FE08262E370E080E07A
:101B900090E00E94E023F394ECCF8091DF0181502C
:101BA00087FD84E08093DF016091DF018EEF93E099
:101BB0000E947C1761E087E00E94832564EB70E05F
:101BC00086E00E94722476E0A72EB12C2091DF01DE
:101BD00038EC230340011124E12CF12C54EB850E49
:101BE000911C34016E0C7F1CC12CD12C26E02E9D43
:101BF00010012F9D300C112427014A185B0856E074
:101C0000549D9001559D300D1124F101EC0DFD1DE9
:101C1000E052FE4F108257FC15C0C3012A87398756
:101C20000E949D1790E00C2C02C0959587950A9410
:101C3000E2F781702A853985F901EC0DFD1DE0522E
:101C4000FE4F80838FEFC81AD80A96E0C916D104D8
:101C5000E1F6EFEFEE1AFE0AF6E0EF16F10409F6F0
:101C600064E670E080E090E00E94E023A114B104FB
:101C700009F43DCF8FEF8A0D843048F46FE770E0B0
:101C800086E00E94722460E087E00E94832551E094
:101C9000A51AB1089BCFF0E0EA5EFE4F97010080E5
:101CA00002C0220F331F0A94E2F720233123232B93
:101CB00009F45CCA892B09F059CAC8018E7E99279C
:101CC000892B09F453CAAE014F5F5F4FBE016A5FB3
:101CD0007F4FC8010E944307FF808981F81608F0F2
:101CE000C4C08091110290911202892B09F080C02A
:101CF00080910001813009F0B4C046E0E42EDD247B
:101D0000D39425E02F1588F0E885EE9EF00111248C
:101D1000EF0DF11DE052FE4FD08262E370E080E0F3
:101D200090E00E94E023F394ECCF61E087E00E9412
:101D3000832564EB70E086E00E94722436E0832EF7
:101D4000912C2091DF0138EC230310011124A12CE8
:101D5000B12C54EB250E311C31016A0C7B1CE12C9B
:101D6000F12CE6E0EA9D2001EB9D500C1124F201DC
:101D7000EE0DFF1DE052FE4F10826701C818D90812
:101D8000D7FC11C0C3010E949D1790E00E2C02C029
:101D9000959587950A94E2F78170F201EC0DFD1D8F
:101DA000E052FE4F80833FEFE31AF30A56E0E51658
:101DB000F104E9F68FEFA81AB80A96E0A916B10463
:101DC00059F664E670E080E090E00E94E023F1E0E4
:101DD0008F1A910808F0B5CF6FE770E086E00E9497
:101DE000722460E087E00E94832584E090E0D1C007
:101DF0008091110290911202019799F561E087E0BC
:101E00000E94832564EB70E086E00E947224FF80CC
:101E100026E0E22EDD24D39485E08F1588F0E88556
:101E2000EE9EF0011124EF0DF11DE052FE4FD08225
:101E300064E670E080E090E00E94E023F394ECCF51
:101E40006FE770E086E00E94722460E087E00E9405
:101E5000832586E090E090931202809311020E9405
:101E6000D41CEE24E394F12C33C1809111029091A3
:101E70001202892B89F580910001813091F761E090
:101E800087E00E94832564EB70E086E00E94722464
:101E9000FF8086E0E82EDD24D394F7FC13C0E885AC
:101EA000EE9EF0011124EF0DF11DF7FCFA95E052C2
:101EB000FE4FD08264E670E080E090E00E94E02374
:101EC000FA94EBCF6FE770E086E00E94722460E046
:101ED00087E00E9483255BC08091110290911202DD
:101EE000019709F05BC061E087E00E94832564EB05
:101EF00070E086E00E947224FF80B6E0EB2EDD24C5
:101F0000D394F7FC13C0E885EE9EF0011124EF0D89
:101F1000F11DF7FCFA95E052FE4FD08264E670E0C6
:101F200080E090E00E94E023FA94EBCF6FE770E04E
:101F300086E00E94722460E087E00E9483250E9470
:101F4000001C6091DD017091DE016F5F7F4F709327
:101F5000DE016093DD018CEF93E00E947C170E940C
:101F6000D41C61E885E492E00E94E1078AED0E94BA
:101F70004B088AED0E944B088AED0E944B0861E8ED
:101F800085E492E00E949E0782EB0E944B0882E06B
:101F900090E0909312028093110263CF809111021E
:101FA00090911202039709F05CCFA6E0EA2EDD249F
:101FB000D394F7FC13C0E885EE9EF0011124EF0DD9
:101FC000F11DF7FCFA95E052FE4FD08262E370E01B
:101FD00080E090E00E94E023FA94EBCF61E087E09C
:101FE0000E94832564EB70E086E00E947224812CBD
:101FF000912C2091DF0138EC230310011124E12CF6
:10200000F12C54EB250E311C31016E0C7F1CC12CC0
:10201000D12C36E03E9D20013F9D500C1124F20151
:10202000EC0DFD1DE052FE4F10825601A818B908B4
:10203000B7FC11C0C3010E949D1790E00C2C02C098
:10204000959587950A94E2F78170F201EA0DFB1DE0
:10205000E052FE4F80839FEFC91AD90AE6E0CE1600
:10206000D104E9F6FFEFEF1AFF0A26E0E216F104C9
:1020700059F664E670E080E090E00E94E0235FEFB4
:10208000851A950A87E08816910409F0B2CF6FE7A8
:1020900070E086E00E94722460E087E00E94832561
:1020A000F0921202E0921102DACEE885F0E0EA5EE8
:1020B000FE4FC701008002C0880F991F0A94E2F703
:1020C00008231923012B09F4A2C80E94E1178C01EF
:1020D000EF81F0E0E45EFE4FC701008002C0880F90
:1020E000991F0A94E2F780239123892BF1F2EDCF17
:1020F000682F6F77262F30E0285431092C303105B6
:1021000008F4B5CA87FDB0CA682F6068ADCA2A96C0
:102110000FB6F894DEBF0FBECDBFDF91CF911F91F8
:102120000F91FF90EF90DF90CF90BF90AF909F9076
:102130008F907F906F905F904F903F902F90089579
:10214000EF92FF921F93CF93DF93EC01162F0E9423
:10215000E1077C01612FCE010E949E07C7019927EC
:10216000DF91CF911F91FF90EF9008954091D101A1
:102170005091D2012091CF013091D00142175307E5
:10218000B4F49091E8009570E1F39091E80092FD2D
:1021900019C08093F1008091D1019091D2010196F4
:1021A0008F739927892B19F48EEF8093E800809123
:1021B000D1019091D20101969093D2018093D101E7
:1021C00081E0089580E00895CF92DF92EF92FF9230
:1021D0000F931F93CF93DF931F92CDB7DEB7182FC6
:1021E000062FE42E862F880F8E5F99830E94B610EB
:1021F00083E00E94B610F12EC12E9981D92E8C2D2C
:102200008F19801798F4F601E7FE02C0849101C08F
:1022100080810E94B610182F80E00E94B6108123A2
:10222000FFEFCF1ADF0A8111EACF01C081E00F90E2
:10223000DF91CF911F910F91FF90EF90DF90CF90A2
:102240000895DF92EF92FF920F931F93CF93DF9346
:10225000D82E8A017B01E40EF51EEB01CE15DF05B9
:1022600071F0D7FE03C0FE01849101C088810E94F5
:10227000B61021968111F2CF8FEF9FEF01C0C801F8
:10228000DF91CF911F910F91FF90EF90DF90089514
:102290002FB7F89487708093E9009091E800892F18
:1022A000807295FF04C09091F20080E4891B2FBFDB
:1022B0000895615030F02091F100FC0120830196D7
:1022C000F8CF289A84E6809313020895CF92DF9284
:1022D000EF92FF920F931F93CF93DF936C017A01DC
:1022E0008B01C0E0D0E0CE15DF0589F0D8016D91FB
:1022F0008D01D601ED91FC910190F081E02DC60198
:102300000995892B11F47E0102C02196ECCFC701FB
:10231000DF91CF911F910F91FF90EF90DF90CF90C1
:1023200008958091C70181110DC082E08093C3019F
:1023300084E08093C4011092C6011092C50181E02F
:102340008093C70183EC91E008950F931F93CF937F
:10235000DF931F92CDB7DEB782E0898342E450E07D
:102360006EEF71E080E80E9421110E949111DC0162
:1023700012960D911C9113970115110569F0D80162
:10238000ED91FC910280F381E02DBE016F5F7F4FE4
:10239000C801099597FF07C089810F90DF91CF9100
:1023A0001F910F910895F80100851185E5CFCF9316
:1023B000DF931F92CDB7DEB76983DC01ED91FC910D
:1023C0000280F381E02D41E050E0BE016F5F7F4F5E
:1023D00009950F90DF91CF91089583E08093E900F4
:1023E0008091F200882319F08AE38093E800089531
:1023F00083E00E94481190E00895FC018485958552
:1024000097FD0BC09FB7F89482E08093E90080911C
:10241000F2009FBF90E0019608959FB7F89482E084
:102420008093E9008091F2009FBF90E008950895A5
:10243000E091DC018091DB01E81730F4F0E0E65731
:10244000FE4F808190E008958FEF9FEF0895909167
:10245000DC018091DB01981750F4E92FF0E0E6579A
:10246000FE4F208130E09F5F9093DC0102C02FEF90
:102470003FEFC90108958091DB0190E02091DC01DC
:10248000821B91090895DC01FB0112968C91129731
:1024900090E02481358182179307D1F49181808166
:1024A000813A31F481E0913091F0933089F411C098
:1024B000813271F49B3021F482811F968C9305C088
:1024C0009A3031F4828150968C9381E0089508957A
:1024D00080E00895DC01FB0188E4808389E4818346
:1024E00084E482831D969C911D979F709F5B9383CC
:1024F0001D968D919C911E9724E0969587952A951F
:10250000E1F78F708F5B848385E00895EF92FF92EF
:102510000F931F93CF93DF93FB012081213851F557
:102520002381223239F5DC0112962C9130E044816E
:10253000558142175307F1F4EC010B851C85E12C02
:10254000F12C0115110591F0F8014481558162814A
:10255000738180E80E9421118F3FFFEF9F0769F090
:10256000E80EF91ED8010D911C91EBCF81E08F8709
:10257000C70105C080E090E002C08FEF9FEFDF91C0
:10258000CF911F910F91FF90EF900895CF93DF931C
:10259000CDB7DEB769970FB6F894DEBF0FBECDBFDB
:1025A000FC01DB018C918F5F8C93BE016F5F7F4FCD
:1025B00089E1DB011D928A95E9F729E0298384E00E
:1025C0008A8391E09D8383E08E832A8721E22B8793
:1025D0009C879D879F8722E2288B27E02B8B25E015
:1025E0002C8B8E8B20E430E0388F2F8B998F82815B
:1025F0008B8395858685998B8A8B838180688D8B6B
:1026000049E150E080E00E94211169960FB6F894EC
:10261000DEBF0FBECDBFDF91CF910895FC01828157
:102620008F5BFB01808381E008950E941B26CF937E
:10263000DF931F92CDB7DEB7FC018485958597FDAA
:1026400005C02FEF3FEF358724870BC0CE010196E1
:102650000E94AA1C019719F4898190E002C08FEFB3
:102660009FEF0F90DF91CF9108950F931F93CF931A
:10267000DF931F92CDB7DEB78C01FC018485958571
:1026800097FF0EC0CE0101960E94AA1C019719F473
:10269000298130E002C02FEF3FEFF8013587248712
:1026A000F801848595850F90DF91CF911F910F914F
:1026B0000895CF92DF92EF92FF920F931F93CF93E3
:1026C000DF937C01262F972F8A01809115028823A2
:1026D00091F0C62FD72F6E01C40ED51ECC15DD0587
:1026E00071F06991D701ED91FC910190F081E02D9D
:1026F000C7010995F3CF642F822F0E940022C801E1
:10270000DF91CF911F910F91FF90EF90DF90CF90CD
:102710000895CF93DF931F92CDB7DEB769832091E1
:1027200015022223D1F020913802203240F021E01E
:1027300030E0FC013383228380E090E015C080917B
:102740001602E82FF0E0E95EFD4F998190838F5FDC
:10275000809316028093380205C061E0CE01019695
:102760000E94002281E090E00F90DF91CF910895C8
:102770001F920F920FB60F9211248F939F93809107
:10278000E1009091E100937F9093E10083FF0FC0FF
:102790001092E90091E09093EB001092EC0092E32C
:1027A0009093ED001092140298E09093F00082FF55
:1027B00020C093E09093E9009091F200992319F0E2
:1027C0009AE39093E8009091D301992339F0909186
:1027D000D30191509093D301992389F190911302E1
:1027E000992339F0909113029150909313029923F9
:1027F00041F184FF10C08091E2008E7E8160809361
:10280000E2008091E1008F7E8093E1008091D90108
:102810008E7E806111C080FF16C08091E2008E7EA6
:1028200080618093E2008091E1008E7E8093E100E0
:102830008091D9018E7E81608093D90104C05D981A
:10284000CDCF2898D6CF9F918F910F900FBE0F902C
:102850001F9018951F920F920FB60F921124CF92CE
:10286000DF92EF92FF920F931F932F933F934F931B
:102870005F936F937F938F939F93AF93BF93EF93E8
:10288000FF93CF93DF93CDB7DEB76C97DEBFCDBF9D
:102890001092E9008091E80083FFEDC168E0CE016D
:1028A00045960E94591182EF8093E8008D8987FF39
:1028B00005C09091E80090FFFCCF03C09EEF90937D
:1028C000E800982F907609F0C6C09E892F89188D50
:1028D00091110CC0803829F48091DA018093F100C5
:1028E00002C01092F1001092F10048C1422F50E056
:1028F000512B913051F4811141C14130510509F002
:102900003DC18091DA018D7F0BC0933061F481115C
:1029100035C14130510509F031C18091DA01826041
:102920008093DA012BC1953041F48091E80080FF5B
:10293000FCCF20682093E30021C1963009F05FC0EE
:10294000EB8CFC8C1092E9001092D2011092D10114
:10295000123091F51092D0011092CF010E94A51172
:1029600099E0BE016F5F7F4FDB01E92F1D92EA9571
:10297000E9F799831A8391E09E8390EA98879AEF0A
:1029800099872091D1013091D201275F3F4F3C833D
:102990002B838D831092E9001092D2011092D10105
:1029A000F092D001E092CF0149E050E080E00E9437
:1029B00021110E94A511E2C0F092D001E092CF0156
:1029C0000E949111DC011296ED90FC901397E11496
:1029D000F10409F4C0C0D701ED91FC910480F581A8
:1029E000E02DBE016B5E7F4FC7010995009719F07E
:1029F0000CF0C4C0C7C0F701E084F184E8CF973081
:102A000009F4C0C0983021F481E08093F100B6C091
:102A1000993009F0B3C0837009F0B4C0E2E0F1E08E
:102A200081E021E036E39081992361F08093E90011
:102A30002093EB0091919093EC003093ED008F5F29
:102A4000873089F78EE78093EA001092EA008F8939
:102A50008093140293C08B8D9C8D1092E90010928C
:102A6000D2011092D1019093D0018093CF01898D32
:102A7000811156C08E899D89913A59F4813209F0AD
:102A800081C047E050E06CE071E080E00E942111DD
:102A900075C0913209F076C0833289F4888D90E058
:102AA000982F88272F89822BA0E0B0E0809308011F
:102AB00090930901A0930A01B0930B015FC080328B
:102AC00069F48091E80082FFFCCF67E08CE091E040
:102AD0000E9459118BEF8093E80006C0823209F002
:102AE0004DC08F89809313018091D801882319F0FC
:102AF000EEEFFAE002C0E0E0F8E080910C01909186
:102B00000D01A0910E01B0910F01803B9440A105F1
:102B1000B10509F07BC08091130180FF93C076C09E
:102B20000E949111DC0112960D911C9113970115D1
:102B3000110541F1D801ED91FC910190F081E02D5A
:102B4000BE016B5E7F4FC8010995811117C0F80166
:102B500000851185ECCF113009F44EC0133091F48B
:102B60008F89882309F445C0823081F440E868E009
:102B700080E692E00E94E410882321F08EEF80939B
:102B8000E80079C081E28093EB0075C0813029F4C0
:102B900040E869E086E592E0EDCF833099F70E9446
:102BA0009111DC011296ED90FC9013978E010F5F4E
:102BB0001F4F6801E114F10479F0D701ED91FC9108
:102BC0000680F781E02DB801C7010995080F111D96
:102BD000F701E084F184EECFD8011C92F601019058
:102BE0000020E9F73197BF016C197D0940E0C6016B
:102BF000C1CF60E472E002C064E472E06115710567
:102C000009F2FB01449150E080E840CF0FB6F89400
:102C1000A8958091600088618093600010926000A8
:102C20000FBEA895EE3F2AE0F20739F08091FE0A28
:102C30009091FF0A91838083A1CF1092FF0A109296
:102C4000FE0A9CCFEE3F8AE0F80731F08081918147
:102C50009093FF0A8093FE0A87E797E7918380832A
:102C60009BE088E10FB6F894A895809360000FBEB2
:102C70009093600083CF6C960FB6F894DEBF0FBEC2
:102C8000CDBFDF91CF91FF91EF91BF91AF919F9118
:102C90008F917F916F915F914F913F912F911F91F4
:102CA0000F91FF90EF90DF90CF900F900FBE0F909D
:102CB0001F9018957F928F929F92AF92BF92CF9262
:102CC000DF92EF92FF920F931F93CF93DF93C82E63
:102CD0008B017A0180911402811103C08FEF9FEF65
:102CE00075C08091D90180FF05C08091E0008260AD
:102CF0008093E000CE2DDF2DD12C8AEF882E8C2DF5
:102D00008770B82E8C2D8072A82E8C2D8074982EF2
:102D10009AE3792E209709F452C08C2D0E94481115
:102D2000282F81110AC08A948820C1F261E070E0E6
:102D300080E090E00E94E023EDCF90E0C817D90733
:102D40000CF42C2F3FB7F894B092E9008091E80082
:102D500085FF33C0822F90E0C81BD90BAA2029F031
:102D60002150A8F01092F100FBCFF801C7FE07C078
:102D7000215058F044914093F1003196F9CF215001
:102D800020F041914093F100FACF080F191FDD2088
:102D900019F07092E8000AC08091E80085FD08C033
:102DA0007092E800DD24D394209739F0D12C05C02F
:102DB000209719F491107092E8003FBFABCFD1106B
:102DC000ACCF5D9A84E68093D301C701DF91CF91A8
:102DD0001F910F91FF90EF90DF90CF90BF90AF9039
:102DE0009F908F907F900895CF93DF93EC01809117
:102DF0001301882331F083E00E945A161816190631
:102E000034F081E090E09B838A8380E090E0DF9162
:102E1000CF9108958091BB0181116BC081E08093B7
:102E2000AE018093AF0124EB31E03093B1012093E8
:102E3000B0011092B3011092B20126E231E030935A
:102E4000AB012093AA011092B6011092B501109225
:102E5000B8011092B7018093B9018093BA0181EC57
:102E60008093B4010E949111FC0121818091AE01F7
:102E700090E0820F911D089724F081E08093BB01C0
:102E800038C0A281B381109729F48AEA91E0938334
:102E900082830EC018968D919C911997009711F01E
:102EA000DC01F8CF8AEA91E019969C938E931897EB
:102EB00080818093AC0181818093AD01908180916C
:102EC000AF01890F808380E09091AE018917A8F649
:102ED000A091B001B091B101A80FB11D9C91A18149
:102EE000B0E0AF5FBE4F9C9391819F5F91838F5FF6
:102EF000EBCF8AEA91E008950C940D2661E885E411
:102F000092E00E94E1078AED0E944B0861E885E4A7
:102F100092E00E949E0780EB0C944B08CF93DF93C6
:102F2000D82FC0E0CD1729F089ED0E944B08CF5F64
:102F3000F9CFDF91CF910C947E170C940526CF9397
:102F4000C62F91E0909315029CE190933702109266
:102F5000160210923802682F89E392E00E948913CA
:102F60006C2F89E392E00E94891381E00E94971CF4
:102F700081E0CF91089591E0909315029CE19093A8
:102F800037021092160210923802682F89E392E0FD
:102F90000E94891381E00E94971C21E041E06AE8C9
:102FA00071E08CE10E9462211092DC018093DB01D0
:102FB000813029F489E392E00E942712089580E08D
:102FC0000895CF9384E00E94BB17C82F83E00E942E
:102FD000BB172C2F30E0322F2227A901482BCA0122
:102FE000CF91089585E00E94BB1782E00E94BB1735
:102FF00083E00E94BB1784E00C94BB178091D7013B
:1030000081110DC0809110028F3F31F0809110022C
:103010008F5F8093100203C081E08093D70180917D
:10302000D701813061F480911002882331F08091C2
:10303000100281508093100208951092D7010895D4
:103040001F920F920FB60F9211242F933F934F931D
:103050005F936F937F938F939F93AF93BF93CF9320
:10306000DF93EF93FF93C0E0C33099F028F4C130B1
:1030700051F0C23059F004C0C43071F0C53079F05D
:1030800060E08CE00EC060E088E00BC060E089E0AA
:1030900008C060E08AE005C060E085E002C060E052
:1030A0008DE00E948325CF5FC630F1F68091D60176
:1030B000823099F038F4882369F08130C1F461E0FE
:1030C00084E113C0843079F058F0853081F461E0F8
:1030D00083E10BC061E082E108C061E085E105C0E9
:1030E00061E086E102C061E087E10E948325809172
:1030F000D601823089F038F4882359F0813081F488
:1031000060E085E10BC0843089F068F0853089F09B
:1031100007C060E084E102C060E086E10E94832590
:10312000C0E0D6E01DC060E087E1F8CF60E083E159
:10313000F5CF60E082E1F2CFC430A8F4C130C1F035
:10314000C23001F1E091D601DE9FF0011124E0527E
:10315000FE4F60818CE00E948325CF5FC630D1F1A5
:10316000C33051F719C0C43009F1C53049F1EACF75
:10317000E091D601DE9FF0011124E052FE4F618103
:1031800088E0E9CFE091D601DE9FF0011124E05202
:10319000FE4F628189E0DFCFE091D601DE9FF00132
:1031A0001124E052FE4F63818AE0D5CFE091D60131
:1031B000DE9FF0011124E052FE4F648185E0CBCF09
:1031C000E091D601DE9FF0011124E052FE4F6581AF
:1031D0008DE0C1CF8091D6018F5F8093D601809121
:1031E000D601863010F01092D6018091D50186323A
:1031F00039F461E087E00E9483256FEF70E006C03C
:103200008091D501883031F460E070E086E00E9462
:10321000722412C08091D501813051F46FE770E0C3
:1032200086E00E94722460E087E00E94832504C04B
:103230008091D501882329F08091D5018150809318
:10324000D501FF91EF91DF91CF91BF91AF919F9108
:103250008F917F916F915F914F913F912F910F903F
:103260000FBE0F901F901895CF92DF92EF92FF92B2
:103270000F931F93CF93DF931F92CDB7DEB7062F27
:1032800010E022E3289F7001299FF00C1124C12C2B
:10329000D12CC016D10671F0F601EE0DFF1DE352E0
:1032A000FB4F849149830E944B088FEFC81AD80ABC
:1032B0004981EFCF413061F480EB0F90DF91CF91E6
:1032C0001F910F91FF90EF90DF90CF900C944B08DF
:1032D0000F90DF91CF911F910F91FF90EF90DF90B2
:1032E000CF900895CF9387ED0E944B08E091D401D1
:1032F0008E2F90E08730910508F087C1FC01E25ADB
:10330000FF4F0C94FF25C6E041E061E387E090E0C9
:103310000E94341941E061E388E090E00E94341992
:1033200041E061E388E090E00E94341941E061E30C
:1033300088E090E00E943419C15031F740E061E329
:1033400087E090E00E94341981E012C1C5E18AED66
:103350000E944B08C150D9F70E947E171DC1C5E1DC
:103360008AED0E944B08C150D9F70E947E1740E0B9
:1033700061E389E090E00E94341983E00E948E1797
:1033800040E061E38AE090E00E94341984E00E940A
:103390008E1740E061E38BE090E00E94341984E0F6
:1033A0000E948E1740E061E38CE090E00E943419A7
:1033B00084E00E948E1740E061E38DE090E00E947F
:1033C000341984E00E948E1740E061E38EE090E0C3
:1033D00014C1C5E18AED0E944B08C150D9F70E9483
:1033E0007E1740E061E38FE090E00E94341983E0B3
:1033F0000E948E1740E061E380E190E00E94341962
:1034000084E00E948E1740E061E381E190E00E9439
:10341000341984E00E948E1740E061E387E290E077
:103420000E94341984E00E948E1740E061E382E13B
:1034300090E00E94341984E00E948E1740E061E31E
:1034400083E190E0DAC0C5E18AED0E944B08C150EB
:10345000D9F70E947E1740E061E384E190E00E948A
:10346000341983E00E948E1740E061E385E290E02A
:103470000E94341984E00E948E1740E061E386E2E6
:1034800090E00E94341984E00E948E1740E061E3CE
:1034900088E290E00E94341984E00E948E1740E098
:1034A00061E389E290E00E94341984E00E948E1763
:1034B00040E06CE18AE290E00E9434198FE10E94C2
:1034C0004B0884E791E00E940E1C8EE10E944B089D
:1034D0008CE791E00E940E1C92C0C6E18AED0E942A
:1034E0004B08C150D9F70E947E1740E061E388E0A5
:1034F00090E00E94341981E00E948E1740E061E361
:1035000088E090E00E94341983E00E948E1740E02A
:1035100061E388E090E00E94341984E00E948E17F5
:1035200040E061E388E090E00E94341984E00E946A
:103530008E1740E061E388E090E00E94341984E057
:103540000E948E1740E061E388E090E00E94341909
:1035500084E00E948E1740E061E388E090E00E94E2
:10356000341989ED0E944B0889ED0E944B0886E0D2
:103570008093D4014AC0C6E18AED0E944B08C15035
:10358000D9F70E947E1740E061E386E090E00E9458
:10359000341981E00E948E1740E061E380E090E002
:1035A0000E94341983E00E948E1740E061E381E0BD
:1035B00090E00E94341984E00E948E1740E061E39D
:1035C00082E090E00E94341984E00E948E1740E06F
:1035D00061E383E090E00E94341984E00E948E173A
:1035E00040E061E384E090E00E94341984E00E94AE
:1035F0008E1740E061E385E090E00E94341989ED88
:103600000E944B0889ED0E944B08CF910C94001C3E
:103610008F929F92BF92CF92DF92EF92FF920F9381
:103620001F93CF93DF93082FC62F40E08A3011F00D
:103630006A3031F461E381E290E00E94341993C072
:1036400064E082E290E00E943419602F70E080E034
:1036500090E04AE00E94201C40E061E083E290E0BC
:103660000E9434196C2F70E080E090E04AE00E94E4
:10367000201C40E06BE084E290E00E9434192EE1CF
:10368000029F8001112435E0C39F70011124C0E026
:10369000D0E02091DF0138EC2303C0011124800F1A
:1036A000911F8E0D9F1D8C0F9D1F0E949D17B82E80
:1036B0008FEFB8120DC085E090E09C012C1B3D0BF4
:1036C000E90183E0CC0FDD1F8A95E1F710E041C0EE
:1036D0008BE50E944B088B2D8F77C82ED12C84351B
:1036E000B0F435E0839F60011124812C912CF4010A
:1036F000EC0DFD1DE751FD4F84910E944B088FEFAB
:10370000881A980A95E08916910489F712C080E218
:103710000E944B0880E20E944B08F601E759FD4FDA
:1037200084910E944B0880E20E944B0880E20E9434
:103730004B088DE50E944B08B7FE02C082E701C02E
:1037400080E20E944B082196C530D10509F0A1CF37
:103750000AC0812F90E08C179D072CF480E20E9414
:103760004B081F5FF6CF80EB0E944B0880EB0E9456
:103770004B08DF91CF911F910F91FF90EF90DF9059
:10378000CF90BF909F908F900C94001CCF93CAE174
:103790008AED0E944B08C150D9F789ED0E944B0871
:1037A00088ED0E944B0861E885E492E00E94E10701
:1037B0006AED85E492E00E94E1070E94001C82EB22
:1037C0000E944B0880EB0E944B086091150180918C
:1037D00014010E94081B82EB0E944B0882EB0E949E
:1037E0004B08CAE189ED0E944B08C150D9F788ED1A
:1037F0000E944B0889ED0E944B08CF910C94001C4D
:10380000E5E4F2E01682178210861186128613868E
:10381000148269E472E0CF010C947407009769F098
:10382000FC0101900020E9F73197AF01481B590BCB
:10383000BC0185E492E00C94661180E090E008956C
:103840008F929F92AF92BF920F931F93CF93DF936C
:10385000CDB7DEB7A1970FB6F894DEBF0FBECDBFD0
:1038600019A2423008F44AE08E010F5D1F4F842EEA
:10387000912CA12CB12CA50194010E94DD25E62FED
:10388000B901CA0101501109EA3014F4E05D01C028
:10389000E95CD801EC93232B242B252B61F7C8017D
:1038A0000E940E1CA1960FB6F894DEBF0FBECDBFCE
:1038B000DF91CF911F910F91BF90AF909F908F900C
:1038C0000895CF92DF92EF92FF92CF93DF936C0136
:1038D000990FEE08FF08F7FE1FC0E0914502F09136
:1038E00046020190F081E02D6DE285E492E00995B9
:1038F000EC0166277727CB016C197D098E099F099A
:103900004AE00E94201C8C0F9D1FDF91CF91FF90F9
:10391000EF90DF90CF9008954AE0C701B601DF91A4
:10392000CF91FF90EF90DF90CF900C94201C0F93DD
:10393000082F21E04091380267E172E08091370260
:103940000E94AA21109216021092380210921502BB
:103950000F910895FC0180911402811103C08FEF33
:103960009FEF08959FB7F89482E08093E90020913B
:10397000F20030E01216130614F421E030E02115B5
:10398000310559F0289A84E6809313028091F10062
:1039900080838091F200882319F09FBFC9010895A8
:1039A0008BE68093E800F9CFCF9361E885E492E05D
:1039B0000E94E107C3E28AED0E944B08C150D9F78B
:1039C00061E885E492E00E949E0782EB0E944B082A
:1039D00080EB0E944B080E94001C40E061E38FE1F5
:1039E00090E00E94341940E06CE180E290E00E9497
:1039F0003419CF910C94001C109258021092570267
:103A000088EE93E0A0E0B0E08093590290935A02D0
:103A1000A0935B02B0935C0222E331E03093560244
:103A2000209355022FEF3FEF309362022093610203
:103A300010923C0210923B0280933D0290933E0212
:103A4000A0933F02B093400284E491E090933A0245
:103A5000809339021092B3028091AB02811113C09E
:103A60001092A6021092A50283E49DE09093A80212
:103A70008093A70286E390E09093AA028093A90224
:103A800081E08093AB020E940A17FC01A385B485F4
:103A9000109729F485EA92E0948783870BC08D9173
:103AA0009C911197009711F0DC01F9CF85EA92E023
:103AB0008D939C93258536858091A9029091AA02C9
:103AC000820F931F968785871092480210924702B3
:103AD00086E591E090934602809345028091BA0278
:103AE000811113C01092B5021092B40289E79DE0D3
:103AF0009093B7028093B6028FE290E09093B90260
:103B00008093B80281E08093BA020E940A17FC01F8
:103B1000A385B485109729F484EB92E0948783877A
:103B20000BC08D919C911197009711F0DC01F9CF9A
:103B300084EB92E08D939C93258536858091B80225
:103B40009091B902820F931F9687858708950E94EE
:103B50001C24109214021092DA011092D901809163
:103B6000D70081608093D70080EA8093D80089B520
:103B7000806189BD89B5826089BD09B400FEFDCF31
:103B800061E070E080E090E00E94E0238091D80046
:103B90008F7C80618093D8008091E000807F80934B
:103BA000E0008091E1008E7E8093E1008DE08093C3
:103BB000E200559A209A5D982898EEEFFFE78591EC
:103BC00094918B3F9C4D19F481E08093D8018FEF45
:103BD0009FEF90936202809361021092DC01109239
:103BE000DB0110921602109238020E94442161E01B
:103BF00087E00E94472561E086E00E94472561E05A
:103C00008BE00E94472561E082E10E94472561E048
:103C100083E10E94472561E084E10E94472561E03D
:103C200085E10E94472561E086E10E94472561E029
:103C300087E10E94472561E08CE00E94472561E012
:103C400088E00E94472561E089E00E94472561E005
:103C50008AE00E94472561E085E00E94472561E0F7
:103C60008DE00E94472560E080E00E9447258FEFAD
:103C700093E00E949D17843141F48DEF93E00E9400
:103C80009D17843109F071C062C061E08BE00E9431
:103C9000832500E010E0C0E0D0E06FEFCE01800FA0
:103CA000911F0E947C172196C43BD105B1F70853A0
:103CB0001F4F083E33E0130771F7E12CF12C00E0B1
:103CC00010E0C4EB680194EBC90ED11C8C2F90E07E
:103CD000C816D9063CF061E08E0D9F1D0E947C172E
:103CE000CF5FF4CFCA3B40F460E0C7018C0F911D59
:103CF0000E947C17CF5FF6CF0F5F1F4F88ECE80E56
:103D0000F11C05301105E9F664E18FEF93E00E94A4
:103D10007C1760E08EEF93E00E947C1764E18DEFEA
:103D200093E00E947C1760E08CEF93E00E947C1788
:103D300087E090E09093120280931102E4E0F2E0B9
:103D400081E0819322E0E031F207D9F796CF87E056
:103D500090E09093120280931102E4E0F2E081E09F
:103D6000819332E0E031F307D9F78EEF93E00E94C0
:103D70009D17C82F8093DF018CEF93E00E949D1761
:103D800090E09093DE018093DD01C53024F084E063
:103D90008093DF0103C0C7FD1092DF01F8941092F9
:103DA0008000109281008AE090E0909389008093D7
:103DB00088008091810088608093810080918100DB
:103DC0008160809381008091810084608093810074
:103DD00080916F00826080936F0010928500109236
:103DE0008400789480E090E0FC01E052FE4F108265
:103DF00016821486128A108E168E019686309105D0
:103E000099F780911102909112020797A1F060ED4D
:103E100077E080E090E00E94E02361E08BE00E9488
:103E2000832564E670E080E090E00E94E02360E09B
:103E30008BE00E94832580E00E94BB178E3309F43B
:103E4000B6C162E186E00E949F17809111029091B5
:103E50001202079739F411E006E090E0892E90E015
:103E6000992E40C068EE73E080E090E00E94E0236D
:103E70002091DF0138EC23037001112400E010E0F1
:103E800084EBE80EF11C86E0D82EC0E0D0E0C7013C
:103E90008C0F9D1F0E949D1790E0002E02C09595EB
:103EA00087950A94E2F78170DC9EF001DD9EF00DAB
:103EB0001124E00FF11FE052FE4F80832196C6309F
:103EC000D10529F70F5F1F4F06301105F1F6C3CF5B
:103ED000823091057CF4892BA9F08114910411F0B2
:103EE0000E94000080911102909112028130910590
:103EF00079F72FC08330910509F44DC0079709F475
:103F00006CC0EBCF0E9465086091100270E08BE0FE
:103F10000E947224809110028F3FF9F20E94AF2319
:103F2000C0905102D0905202E0905302F09054029F
:103F3000C616D706E806F90680F66091100270E012
:103F40008BE00E947224809110028F5F8093100298
:103F50003CC00E9465080E94AF23C0905102D090DF
:103F60005202E0905302F0905402C616D706E806BB
:103F7000F90608F0B2CF6091100270E08BE00E9469
:103F800072240E94FE170E94AF23DC01CB0104962D
:103F9000A11DB11D77C00E9465080E94AF23C0908B
:103FA0005102D0905202E0905302F0905402C61693
:103FB000D706E806F90608F090CF6091100270E08D
:103FC0008BE00E9472240E94FE170E94AF23DC0146
:103FD000CB010196A11DB11D55C020910402809115
:103FE000050290E0820F911D20910602820F911D23
:103FF00020910702820F911D20910802820F911DCE
:1040000020910902820F911D20910A02820F911DB9
:1040100020910B02820F911D20910C02820F911DA5
:1040200020910D02820F911D20910E02820F911D91
:1040300020910F02820F911D892B69F10E94650862
:104040000E94AF23C0905102D0905202E0905302E0
:10405000F0905402C616D706E806F90608F03DCFE0
:104060008BE00E94B32561E0892B09F060E08BE0D2
:104070000E9483250E94AF23DC01CB01845D9E4F0B
:10408000AF4FBF4F8093510290935202A0935302BF
:10409000B093540222CF80E090E0FC01E052FE4F4A
:1040A000108216821486128A108E168E0196863021
:1040B000910599F7E12CF12CE701C052DE4F1883EE
:1040C0001E831C871A8B188F1E8F68EC70E080E0AF
:1040D00090E00E94E02318821E821C861A8A188EA5
:1040E0001E8E9FEFE91AF90A26E0E216F10421F785
:1040F000C12CD12C0C9DC0010D9D900D1124EC0103
:10410000C052DE4F188319831A831B831C831D83BF
:1041100068EC70E080E090E00E94E0231882198251
:104120001A821B821C821D829FEFC91AD90A26E0BF
:10413000C216D104F9F62091DF0138EC23036001A7
:104140001124A12CB12C84EBC80ED11CE12CF12C34
:10415000C6018E0D9F1D0E949D1790E00A2C02C083
:10416000959587950A94E2F781700E9DF0010F9D59
:10417000F00D1124EA0DFB1DE052FE4F80833FEF4E
:10418000E31AF30A86E0E816F10411F79FEFA91A83
:10419000B90A26E0A216B104C9F6109212021092D2
:1041A000110260E08DEF93E00E947C1796CE61E0F3
:1041B00088E00E949F1761E08BE00E949F1762E4F5
:1041C00088E20E949F1760E089E20E949F1760E0EA
:1041D0008AE20E949F1760E08BE20E949F1762E4D0
:1041E0008CE20E949F1760E08DE20E949F1760E0C2
:1041F0008EE20E949F1760E08FE20E949F1762E4A8
:1042000080E30E949F1762E481E30E949F1762E4AB
:1042100082E30E949F1762E483E30E949F1762E398
:104220008CE00E949F1764E08CE10E949F1768E079
:104230008DE10E949F1768E08EE10E949F1768E061
:104240008FE10E949F1764E080E20E949F1768E060
:1042500081E20E949F1768E082E20E949F1768E057
:1042600083E20E949F1764E084E20E949F1764E04B
:1042700085E20E949F1764E086E20E949F1764E037
:1042800087E20E949F17DDCD10922F0381E080937B
:104290002D0310922C0361E082E00E94832561E0EF
:1042A00083E00E948325E9EBF0E080818E7F8083AC
:1042B00080818D7F808388E48093B80085E480933B
:1042C000BC000895413208F043C090912F03911132
:1042D000FCCF91E090932F0320932D032FEF209399
:1042E000C20210920703240F2093060390932E031B
:1042F00090912E03880F892B80932E0380912C039D
:10430000813061F410922C0380912E038093BB00C6
:104310008091BC0083FDF8CF85EC01C085EE8093D1
:10432000BC0080912F038130E1F380910703841753
:1043300010F44091070328E033E0FB01D9018A2FF4
:10434000821B841718F48D918193F9CF842F0895DF
:1043500080E008950F93413208F04AC090912F03F6
:104360009111FCCF32E030932F0300932D033FEFE8
:104370003093C2021092070340930603FB0168E0EA
:1043800073E0DB013A2F361B341718F431913D935B
:10439000F9CF10922E0330912E03880F832B809338
:1043A0002E0380912C03813061F410922C038091B4
:1043B0002E038093BB008091BC0083FDF8CF85EC79
:1043C00001C085EE8093BC00222321F080912F0351
:1043D0008230D1F38091C2028F3F79F08091C20286
:1043E000803241F08091C202803331F094E005C008
:1043F00091E003C092E001C093E0892F0F910895EE
:104400004091E402262F30E0240F311D2132310586
:10441000DCF420912F032430C9F4FC0180E090E00B
:10442000861758F43091E4022191DC01AA51BD4F66
:10443000A30FB11D2C930196F3CF8091E402680F76
:104440006093E40280E0089581E0089582E0089599
:1044500085ED8093BC008091BC0084FDFCCF109260
:104460002F03089585EC8093BC0010922F030895CC
:104470001F920F920FB60F9211242F933F934F93D9
:104480005F936F937F938F939F93AF93BF93EF93BC
:10449000FF938091B900887F803609F49EC078F53B
:1044A000883209F45DC090F4803109F456C038F4C4
:1044B000882309F4F5C0883009F44FC0F5C088316D
:1044C00009F44EC0803209F45FC0EEC0803409F4B4
:1044D0006AC058F4803309F457C0883309F0E4C047
:1044E0008093C2020E943222DFC0803509F44FC09F
:1044F000883509F45DC0883409F0D6C0D3C0883946
:1045000009F4C4C0A8F4883709F467C038F48836C1
:1045100009F463C0803709F460C0C6C0883809F464
:10452000B5C0803909F45FC0803809F0BDC05BC0F8
:10453000803B09F483C038F4803A09F466C0883AB5
:1045400009F47CC0B1C0803C09F4A4C0883C09F4E3
:10455000A1C0883B09F487C0A7C080912E0310C07A
:104560009091070380910603981770F5E091070377
:1045700081E08E0F80930703F0E0E85FFC4F8081BD
:104580008093BB0085EC83C08093C2028BC0E09116
:10459000070381E08E0F809307038091BB00F0E05A
:1045A000E85FFC4F808390910703809106036BC006
:1045B000E091070381E08E0F809307038091BB0099
:1045C000F0E0E85FFC4F808380912D0381116AC089
:1045D00081E080932C0384EA5EC083E080932F0304
:1045E0001092C302CFCF8091C302803208F04EC038
:1045F000E091C30281E08E0F8093C3028091BB00E3
:10460000F0E0EC53FD4F8083BDCF0E9432228091B9
:10461000C302803230F4E091C302F0E0EC53FD4F6E
:1046200010826091C30270E0E0912803F0912903A9
:1046300084EC92E009951092C30236C084E0809326
:104640002F031092E5021092E402E0912A03F09108
:104650002B0309958091E402811105C081E08093CC
:10466000E4021092E602E091E50281E08E0F809371
:10467000E502F0E0EA51FD4F80818093BB0090910C
:10468000E5028091E402981708F47CCF85E88093D6
:10469000BC000AC085EC8093BC0010922F0304C0BC
:1046A0001092C2020E942822FF91EF91BF91AF9118
:1046B0009F918F917F916F915F914F913F912F913A
:1046C0000F900FBE0F901F9018951F920F920FB66C
:1046D0000F9211242F933F938F939F93AF93BF9388
:1046E0008091310390913203A0913303B091340350
:1046F0003091300323E0230F2D3720F40196A11DC4
:10470000B11D05C026E8230F0296A11DB11D2093FF
:1047100030038093310390933203A0933303B0931B
:1047200034038091350390913603A0913703B09103
:1047300038030196A11DB11D809335039093360374
:10474000A0933703B0933803BF91AF919F918F919E
:104750003F912F910F900FBE0F901F9018952FB77C
:10476000F8946091310370913203809133039091FA
:1047700034032FBF08953FB7F8948091350390918B
:104780003603A0913703B091380326B5A89B05C026
:104790002F3F19F00196A11DB11D3FBFBA2FA92FC0
:1047A000982F8827820F911DA11DB11DBC01CD013D
:1047B00042E0660F771F881F991F4A95D1F7089529
:1047C0008F929F92AF92BF92CF92DF92EF92FF9221
:1047D0006B017C010E94BB234B015C01C114D1041D
:1047E000E104F10401F10E94DC250E94BB23DC01FD
:1047F000CB0188199909AA09BB09883E9340A105F4
:10480000B10560F321E0C21AD108E108F10888EE91
:10481000880E83E0981EA11CB11CC114D104E104D0
:10482000F10419F7DBCFFF90EF90DF90CF90BF90AE
:10483000AF909F908F900895789484B5826084BDE6
:1048400084B5816084BD85B5826085BD85B5816094
:1048500085BDEEE6F0E0808181608083E1E8F0E0F4
:104860001082808182608083808181608083E0E823
:10487000F0E0808181608083E1E9F0E08081826006
:104880008083808181608083E0E9F0E080818160C5
:104890008083E1ECF0E080818460808380818260AD
:1048A0008083808181608083E3ECF0E0808181609F
:1048B0008083E0ECF0E0808182608083E2ECF0E0D5
:1048C000808181608083EAE7F0E08081846080837A
:1048D0008081826080838081816080838081806824
:1048E000808308951F93CF93DF93182FEB0161E02E
:1048F0000E944725209711F460E004C0CF3FD10506
:1049000039F461E0812FDF91CF911F910C948325C1
:10491000E12FF0E0E855F24FE4914E2F50E0FA011C
:104920003197EF30F10508F06CC0EB59FF4F0C9454
:10493000FF2584B5806884BDC7BD68C084B580622A
:1049400084BDC8BD63C08091800080688093800072
:10495000D0938900C093880059C080918000806204
:1049600080938000D0938B00C0938A004FC08091C9
:104970008000886080938000D0938D00C0938C006D
:1049800045C080919000806880939000D0939900FA
:10499000C09398003BC0809190008062809390000B
:1049A000D0939B00C0939A0031C0809190008860A2
:1049B00080939000D0939D00C0939C0027C080916D
:1049C000C00080688093C0008091C0008F7B80937E
:1049D000C000C093CF001AC08091C0008062809355
:1049E000C000C093D00012C08091C2008860809344
:1049F000C2008091C2008B7F8093C200C093D2001E
:104A000005C0C038D1050CF07CCF76CFDF91CF91B7
:104A10001F91089590E0FC013197EF30F105B0F55A
:104A2000EC58FF4F0C94FF25809180008F7703C0D6
:104A3000809180008F7D8093800008958091800018
:104A4000877FF9CF84B58F7702C084B58F7D84BD11
:104A50000895809190008F7707C0809190008F7D9E
:104A600003C080919000877F80939000089580918B
:104A7000C0008F7703C08091C0008F7D8093C000FD
:104A800008958091C200877F8093C2000895CF93DC
:104A9000DF9390E0FC01E953F24F2491FC01EA51CD
:104AA000F24F8491882361F190E0880F991FFC01F7
:104AB000EF5DF14FC591D491FC01ED5EF14FA591F1
:104AC000B491611109C09FB7F89488812095822321
:104AD0008883EC912E230BC0623061F49FB7F89469
:104AE0003881822F809583238883EC912E2B2C9301
:104AF0009FBF06C08FB7F894E8812E2B28838FBF05
:104B0000DF91CF9108951F93CF93DF93282F30E04B
:104B1000F901E855F24F8491F901E953F24FD4912C
:104B2000F901EA51F24FC491CC23C9F0162F81113B
:104B30000E940A25EC2FF0E0EE0FFF1FED5EF14F13
:104B4000A591B4918FB7F894111105C09C91ED2FE8
:104B5000E095E92302C0EC91ED2BEC938FBFDF9140
:104B6000CF911F910895CF93DF93282F30E0F90163
:104B7000E855F24F8491F901E953F24FD491F901CC
:104B8000EA51F24FC491CC2391F081110E940A2581
:104B9000EC2FF0E0EE0FFF1FEB5FF14FA591B4910A
:104BA000EC91ED2381E090E021F480E002C080E010
:104BB00090E0DF91CF9108950895A1E21A2EAA1BEB
:104BC000BB1BFD010DC0AA1FBB1FEE1FFF1FA217BD
:104BD000B307E407F50720F0A21BB30BE40BF50BBA
:104BE000661F771F881F991F1A9469F76095709543
:104BF000809590959B01AC01BD01CF010895EE0F0A
:104C0000FF1F0590F491E02D0994F999FECF92BD14
:104C100081BDF89A992780B50895262FF999FECF7E
:104C20001FBA92BD81BD20BD0FB6F894FA9AF99AC9
:104C30000FBE0196089581E090E0F8940C94202630
:044C4000F894FFCF16
:104C44000100C18081000000FFFFFFFF00E10000C0
:104C5400000000000A0A000408090A0B0102030507
:104C64000607000000004312C61286126A120000F2
:104C74000000D711F416F811ED11FD1117133513B7
:104C84000000000089135913710717123B122712F1
:104C9400181200000000A010661171077007436F1E
:104CA4006D7061746162696C697479206C65766594
:104CB4006C3A20002020202F202020002020202FAC
:0A4CC400202052204320202F000082
:2070000055C000006EC000006CC000006AC0000068C0000066C0000064C0000062C0000043
:2070200060C000005EC00000F2C400005AC0000058C0000056C0000054C0000052C00000EE
:2070400050C0000078C000004CC000004AC0000048C0000046C0000044C0000042C00000BE
:2070600040C000003EC000003CC000003AC0000038C0000036C0000034C0000032C0000048
:2070800030C000002EC000002CC000002AC0000028C0000026C0000024C0000022C00000A8
:2070A00020C000001EC000001CC0000011241FBECFEFDAE0DEBFCDBF11E0A0E0B1E0E2E3BC
:2070C000FFE702C005900D92A83AB107D9F711E0A8EAB1E001C01D92AE3BB107E1F78FD30B
:2070E00026C78ECFF89410926F0010928100109285001092840081E085BF15BE47985D98ED
:2071000028980C94000008952091B2013091B3012F5F3F4F3093B3012093B201932F37FFA8
:2071200003C08EEF831B982F990F921710F447980895479A08951F920F920FB60F9211246E
:207140002F938F939F93EF93FF9310928500109284008091A8019091A901009741F00197D3
:207160009093A9018093A801892B09F45D988091AA019091AB01009741F001979093AB0128
:207180008093AA01892B09F42898E0E0F0E0859194918F5F9F4F49F08091AC019091AD0153
:2071A00001969093AD018093AC01FF91EF919F918F912F910F900FBE0F901F90189584E0BC
:2071C0008093E9000DC08091E8008B778093E80003C08EB3882351F08091E80082FFF9CFBE
:2071E0008091E80085FFEFCF8091F1000895982F83E08093E9008091E80085FD0DC0809136
:20720000E8008E778093E80003C08EB3882369F08091E80080FFF9CF9093F1005D9A84E6C9
:2072200090E09093A9018093A80108954F925F926F927F928F929F92AF92BF92CF92DF921E
:20724000EF92FF920F931F93CF93DF9384E08093E9008091E80082FF57C2289A84E690E065
:207260009093AB018093AA01AADF182F853481F48CE49DE19093AD018093AC0107B600FC4B
:20728000FDCFF999FECF81E180935700E89503C0843519F494DF8DE00DC28C34E1F38035F9
:2072A000D1F3843721F484E4A2DF80E003C2813611F489E5FFC18134B1F481DF182F7FDFE3
:2072C00090E0880F991FAA2797FDA095BA2F312F330F20E0442737FD4095542F822B932B68
:2072E000A42BB52BB8C1803711F483E5E3C1833549F4C0E0D1E089917ADF21E0C730D20714
:20730000D1F7D9C1863521F481E371DF80E3D2C1833731F487E86BDF85E969DF8EE1CAC149
:207320008536B9F4E0E0F0E093E085E090935700E89507B600FCFDCF80935700E89507B65D
:2073400000FCFDCFE058FF4FA0E7E030FA0771F7A2CF823739F4E1E0F0E089E08093570024
:207360008491A8C1863439F4E0E0F0E089E08093570084919FC18E3439F4E3E0F0E089E0E5
:2073800080935700849196C1813539F4E2E0F0E089E08093570084918DC1823631F489E521
:2073A00026DF80E024DF80E885C1823419F0873609F0E5C01092AD011092AC0100DF082FE8
:2073C000FEDEF82EFCDE682E8554823008F071C1902F80E0CF2DD0E0C82BD92B10926F00B3
:2073E000173609F04BC081E180935700E895DD24CC24C3943FC0E090AE01F090AF010091CC
:20740000B0011091B101B6E46B16D9F4ED2DF0E0EE29FF29E4918E2FEADEDD2081F082E08D
:2074200090E0A0E0B0E0E80EF91E0A1F1B1FE092AE01F092AF010093B0011093B101DC2470
:2074400018C0D801C701B695A7959795879559D5CEDE82E090E0A0E0B0E0E80EF91E0A1FF2
:207460001B1FE092AE01F092AF010093B0011093B1012197209709F0BECF7DC08090AE01F5
:207480009090AF01A090B001B090B10196E4691609F05DC083E0F40180935700E89507B63E
:2074A00000FCFDCF54C0F6E46F1661F5772031F1E090AE01F090AF010091B0011091B1019E
:2074C0007EDED82ECC24852D90E08C299D29F7010C0140925700E895112482E090E0A0E08B
:2074E000B0E0E80EF91E0A1F1B1FE092AE01F092AF010093B0011093B10102C060DE582E1A
:20750000742423C0E090AE01F090AF010091B0011091B10116950795F794E79450DE682FFA
:20752000C701F7D48091AE019091AF01A091B001B091B1010296A11DB11D8093AE01909349
:20754000AF01A093B001B093B101219704C05524772444244394209709F0A5CF96E46916B6
:2075600041F485E0F40180935700E89507B600FCFDCF8DE03CDE82E080936F009CC0833492
:2075800071F40091AE011091AF0119DE90E021E0F8010C0120935700E89511247CCE8336C8
:2075A00019F5E090AE01F090AF010091B0011091B10105DEF701E16090E021E00C0120938C
:2075C0005700E895112482E090E0A0E0B0E0E80EF91E0A1F1B1FE092AE01F092AF0100936A
:2075E000B0011093B10157CE8D3661F4E091AE01F091AF0185E080935700E89507B600FCF2
:20760000FDCF49CE823551F4E091AE01F091AF0105911491812FEBDD802F4CC0843421F5FE
:20762000E090AE01F090AF010091B0011091B10116950795F794E794C2DD682FC70169D4DE
:207640008091AE019091AF01A091B001B091B1010296A11DB11D8093AE019093AF01A093D8
:20766000B001B093B10117CE843609F5E090AE01F090AF010091B0011091B101D801C70142
:20768000B695A795979587953CD4B1DD82E090E0A0E0B0E0E80EF91E0A1F1B1FE092AE010A
:2076A000F092AF010093B0011093B10104C08B3111F08FE39CDD83E08093E9009091E8002B
:2076C0008091E8008E778093E80095FF04C010C08EB38823C9F08091E80080FFF9CF809193
:2076E000E8008E778093E80003C08EB3882361F08091E80080FFF9CF84E08093E9008091F1
:20770000E8008B778093E800DF91CF911F910F91FF90EF90DF90CF90BF90AF909F908F90AC
:207720007F906F905F904F9008959091B601892F8F77813249F58091B7018032A1F081328A
:2077400019F5913A09F58091E800877F8093E8008DE091E067E070E00BD28091E8008B770B
:207760008093E8000895913279F48091E800877F8093E8008DE091E067E070E05DD2809192
:20778000E8008E778093E800089582E061EC42E0B5D083E061E842E1B1D084E060E842E1EF
:2077A000ADC084B7877F84BF88E10FB6F89480936000109260000FBE20E880E090E00FB63F
:2077C000F89420936100809361000FBE81E085BF92E095BF3F9A209A559AE1E6F0E02083A1
:2077E000108247985D982898109289008AEF8093880090936F0083E080938100F0C040911A
:20780000000850910108109201081092000894B714BE88E10FB6F8948093600010926000D5
:207820000FBE292F30E0F901E270F07091FD18C090FF05C0859194918F5F9F4F81F423FFFF
:207840000FC08091090190910A014817590741F0E0E0F0E0859194918F5F9F4F09F042DC64
:20786000A0DF78941092AD011092AC010CC0DEDC36D38091AC019091AD0181549F4110F00D
:207880001092140141DC80911401882381F78091E00081608093E00025DC80E090E0089598
:2078A000FA01923049F0933061F09130F9F485E191E022E130E01EC087E291E02EE330E04D
:2078C00019C0882329F485E691E024E030E012C0813029F489E691E022E230E00BC0823006
:2078E00029F48DE891E028E130E004C080E090E020E030E091838083C90108958093E9004E
:207900008091EB0081608093EB001092ED006093EC004093ED008091EE00881F8827881F62
:2079200008958091B60188238CF403C08EB38823B1F08091E80082FFF9CF8091E8008B772A
:207940008093E80008958EB3882349F08091E80080FFF9CF8091E8008E778093E800089594
:20796000EF92FF920F931F9345D04CD008ED10E0F80180818F77808380818068808380819B
:207980008F7D808319BC1EBA1092B40180EEE82EF12CF70180818B7F8083F8018081816052
:2079A000808380E060E042E0A9DFE1EEF0E080818E7F8083E2EEF0E0808181608083808144
:2079C00088608083F70180818E7F8083F8018081806180831F910F91FF90EF900895E7ED06
:2079E000F0E08081816080838AE482BF81E08093B501B6CFE8EDF0E080818E7F808310921C
:207A0000E20008951092DA001092E10008951F920F920FB60F9211242F933F934F935F93F6
:207A20006F937F938F939F93AF93BF93EF93FF938091DA0080FF1BC08091D80080FF17C0B2
:207A40008091DA008E7F8093DA008091D90080FF0BC080E189BD82E189BD09B400FEFDCF36
:207A600081E08EBB3BD203C019BC1EBA37D28091E10080FF17C08091E20080FF13C0809138
:207A8000E2008E7F8093E2008091E20080618093E2008091D80080628093D80019BC85E049
:207AA0008EBB1CD28091E10084FF2CC08091E20084FF28C080E189BD82E189BD09B400FEC5
:207AC000FDCF8091D8008F7D8093D8008091E1008F7E8093E1008091E2008F7E8093E20012
:207AE0008091E20081608093E2008091B401882331F48091E30087FD02C081E001C084E067
:207B00008EBBECD18091E10083FF21C08091E20083FF1DC08091E100877F8093E10082E06A
:207B20008EBB1092B4018091E1008E7F8093E1008091E2008E7F8093E2008091E2008061E9
:207B40008093E20080E060E042E0D8DEC7D1FF91EF91BF91AF919F918F917F916F915F9130
:207B60004F913F912F910F900FBE0F901F9018959C014091BC015091BD014617570718F49D
:207B8000F90190E044C06115710511F0AB01F8CF8091E8008E778093E80040E050E0F0CF0F
:207BA0008EB3882309F444C0853009F443C08091E80083FF02C081E008958091E80082FD70
:207BC00031C08091E80080FF22C08091F3009091F200782F60E0292F30E0262B372B07C07A
:207BE00081918093F100415050402F5F3F4F4115510519F02830310598F390E02830310566
:207C000009F491E08091E8008E778093E8004115510531F6992321F605C08EB3882341F075
:207C2000853041F08091E80082FFF7CF80E0089582E0089583E008959C016115710529F47C
:207C40008091E8008B778093E800F90126C08EB3882391F1853091F18091E80083FF02C06C
:207C600081E008958091E80082FFF1CF06C08091F10081936150704059F02091F300809191
:207C8000F200322F20E090E0822B932B892B79F78091E8008B778093E80061157105B9F601
:207CA00005C08EB3882341F0853041F08091E80080FFF7CF80E0089582E0089583E00895C2
:207CC0000F931F93DF93CF9300D0CDB7DEB7E6EBF1E08091F100819381E0EE3BF807C9F792
:207CE00024DD8091E80083FFE4C08091B6019091B701953009F46DC0963040F4913081F1A7
:207D0000913070F0933009F0D4C02AC0983009F4A3C0993009F4B2C0963009F0CAC07CC023
:207D2000803809F4C6C0823809F0C3C08091BA0187708093E9008091EB001092E9002091DB
:207D4000E800277F2093E80090E025E0969587952A95E1F781708093F1001092F10087C0D8
:207D6000882319F0823009F0A4C08F71823009F0A0C08091B801882331F52091BA01277097
:207D800009F497C02093E9008091EB0080FF1BC0933021F48091EB00806213C08091EB0018
:207DA00080618093EB0081E090E002C0880F991F2A95E2F78093EA001092EA008091EB00E5
:207DC00088608093EB001092E9008091E800877F51C0882309F06DC01091B8011F770FB79B
:207DE000F8948091E800877F8093E8009ADD8091E80080FFFCCF8091E3008078812B809398
:207E0000E30080688093E300112311F482E001C083E08EBB0FBF4DC08058823008F049C033
:207E20008091B8019091B9016091BA01AE014F5F5F4F36DDBC01009709F43BC08091E8008E
:207E4000877F8093E80089819A8192DE8091E8008B778093E8002DC0803859F58091E800AA
:207E6000877F8093E8008091B4018093F1008091E8008E778093E80054DD1BC08823C9F4CA
:207E80009091B8019230A8F48091E800877F8093E8009093B40145DD8091B401882331F420
:207EA0008091E30087FD02C081E001C084E08EBB6CDC8091E80083FF0AC08091EB0080624E
:207EC0008093EB008091E800877F8093E8000F900F90CF91DF911F910F91089508951F9360
:207EE0008EB3882361F01091E9001092E9008091E80083FF01C0E4DE17701093E9001F916F
:207F00000895F999FECF92BD81BDF89A992780B50895262FF999FECF1FBA92BD81BD20BDBD
:207F20000FB6F894FA9AF99A0FBE01960895F894FFCF4341544552494E4100777700080031
:207F40000000000000080112011001020000084123370001000201000109023E00020100FE
:207F600080320904000001020201000524001001042402040524060001070582030800FF0C
:207F800009040100020A000000070504021000010705830210000104030904220341007216
:207FA000006400750069006E006F0020004D006900630072006F0020002000200000001810
:1A7FC00003410072006400750069006E006F0020004C004C004300000000D7
:00000001FF
